S00F00006D7952544F532E632E73333726
S11300000000022091010000BD010000BD010000BC
S1130010BD010000BD010000BD010000BD010000E4
S1130020BD010000BD010000BD01000075310000EC
S1130030BD010000BC010000BD0100005131000001
S1130040BD010000BD010000BD010000BD010000B4
S1130050BD010000BD010000BD010000BD010000A4
S1130060BD010000BD010000BD010000BD01000094
S1130070BD010000BD010000BD010000BD01000084
S1130080BD01000029070000BD010000BD01000002
S1130090BD010000BD010000BD010000BD01000064
S11300A0BD010000BD010000BD010000BD01000054
S11300B0BD010000BD010000BD010000BD01000044
S11300C0BD010000BD010000BD010000BD01000034
S11300D0BD010000BD010000BD01000010B5054CCC
S11300E0237833B9044B13B10448AFF300800123E0
S11300F0237010BDB8000020000000006C41000017
S113010008B5034B1BB103490348AFF3008008BD96
S113011000000000BC0000206C410000154B002BC7
S113012008BF134B9D46A3F5803A00218B460F462A
S11301301348144A121A03F025FC0F4B002B00D06D
S113014098470E4B002B00D0984700200021040054
S11301500D000D48002802D00C48AFF3008003F0D6
S1130160EDFB2000290003F073F903F0D3FB00BF7B
S11301700000080000000220000000000000000051
S1130180B800002064080020000000000000000007
S1130190064880470649074A074B9A42BEBF51F8B2
S11301A0040B42F8040BF8E7FFF7B8FF350300002F
S11301B07841000000000020B8000020FEE700BFE6
S11301C080B400AF034BDB6C1B0EDBB21846BD469C
S11301D080BC7047B081E00F80B582B000AF00F002
S11301E01FF87860074B5B6803F00F037A6822FA04
S11301F003F37B60044A7B6813607B681846083706
S1130200BD4680BD00800C400800002080B400AFD3
S1130210024B1846BD4680BC704700BF006CDC0230
S113022080B582B000AF334BDB6A03F47053B3F58F
S1130230805F0AD0B3F5005F03D0B3F5006F08D038
S11302400BE02D4B1B687B6047E04FF400437B6061
S113025043E02A4B1B687B603FE0264BDB6803F4DA
S1130260E063B3F5007F1BD0B3F5007F05D8002B06
S113027024D0B3F5807F16D02BE0B3F5806F09D07E
S1130280B3F5A06F03D0B3F5407F06D021E01C4B3B
S11302907B6021E01B4B7B601EE01B4B7B601BE003
S11302A01A4B7B6018E0FFF78BFF0346122B02D931
S11302B0174B7B6010E0174B7B600DE0FFF780FF6E
S11302C00346122B02D9144B7B6005E0134B7B6071
S11302D002E000237B6000BF00BF064B1B689B0B42
S11302E003F0070301337A68B2FBF3F318460837C7
S11302F0BD4680BD00800C400400002000000020AA
S1130300003FAB01406F4001809FD500C0D8A700DB
S113031040B56400C0CF6A00804F120040420F0015
S113032080B400AF024B1B681846BD4680BC7047C2
S11303300000002080B400AF034B044A9A6000BF61
S1130340BD4680BC704700BF00ED00E00000000027
S113035080B400AF4FF400431846BD4680BC7047DC
S113036080B400AF4FF47A731846BD4680BC704722
S113037080B400AF024B1B681846BD4680BC704772
S11303800400002080B483B000AF0346FB7197F9EA
S11303900730002B0BDBFB7903F01F02064997F9AA
S11303A007305B09012000FA02F241F8232000BF64
S11303B00C37BD4680BC704700E100E080B500AF5B
S11303C0FFF70AFF00BF80BD80B400AF024B1B6A79
S11303D01846BD4680BC704700C0084080B400AFDA
S11303E0024B9B6A1846BD4680BC704700C008405B
S11303F080B483B000AF7860054A7B6803F00F03D4
S1130400A03352F8233018460C37BD4680BC7047E1
S113041000C0084080B483B000AF7860034A7B68B2
S1130420536400BF0C37BD4680BC704700C0084011
S113043080B483B000AF7860054BDA6C04497B6804
S11304401343CB6400BF0C37BD4680BC704700BF6C
S113045000C0084080B483B000AF7860054BDA6C0C
S11304607B68DB4303491340CB6400BF0C37BD46B4
S113047080BC704700C0084080B483B000AF064B16
S1130480DB6C7B60044B1A6C7B68134018460C379A
S1130490BD4680BC704700BF00C0084080B500AFB7
S11304A0FFF78CFF0521112001F068FC032112489D
S11304B001F064FC0121114801F060FC01211048A5
S11304C001F04AFA01210F4801F046FA01210E48D1
S11304D001F042FA01210D4801F03EFA01210C48D5
S11304E001F03AFA01210B4801F036FA01210948DA
S11304F001F000F900BF80BD02001E0003002000CF
S11305004081040000D204000092040000A2040010
S1130510D0433E0080062E0080B500AF00210220AB
S113052001F068FE002300220821022001F09AFE57
S1130530002300220921022001F094FE002300225E
S11305400A21022001F08EFE002300220B2102204A
S113055001F088FE00BF80BD80B500AF00230022FB
S11305600021094800F01CFD002300220021074857
S113057000F016FD0649044800F0CEFC0449034887
S113058000F0CAFC00BF80BD001000400014004011
S1130590FC39000080B584B000AF0346FB715B4BAF
S11305A01B78002B03D00121594802F021FAFB7972
S11305B0002B37D002F0E2FC00BFFFF705FF034633
S11305C003F01003002BF8D102F0F2FC0421002008
S11305D002F0C2FA0021002002F056FB4D4802F05E
S11305E083FB4D4B1B881A463721082002F05EFC22
S11305F0494B5B881A463721092002F057FC464BC9
S11306009B881A4637210A2002F050FC424BDB88B3
S11306101A4637210B2002F049FC4FF48030FFF7D3
S113062019FF1EE002F0AAFC00BFFFF7CDFE03464F
S113063003F01003002BF8D14FF48030FFF7EAFEEB
S113064002F0B6FC4021002002F086FA03210020CB
S113065002F01AFB314802F047FB4FF48030FFF7F9
S1130660E7FE1120FFF78EFE02F06EFC274B1B788D
S1130670002B47D0254B00221A7000BF284B1B6A61
S113068003F00203002BF9D00023FB730023BB7398
S113069019E0BB7B234AD35C002B11D0FB7B032BDB
S11306A00BD8BB7B1846FFF7A3FE03469AB2FB7B2D
S11306B0013A91B2184A22F81310FB7B0133FB7301
S11306C0BB7B0133BB73BB7B0F2BE2D9124B1B8863
S11306D01A463721082002F0E9FB0F4B5B881A46C3
S11306E03721092002F0E2FB0B4B9B881A46372185
S11306F00A2002F0DBFB084BDB881A4637210B206B
S113070002F0D4FB00BF1037BD4680BD4C00002072
S1130710103A0000503A000020010020503C000034
S113072000C00840C039000080B582B000AFFFF7B8
S1130730A3FE034603F48033002B44D04FF48030EF
S1130740FFF768FE2B4B00221A7030E0294B1B7810
S1130750DBB21A46284B9B5C83F00103DBB2002B0F
S11307601DD1FFF73BFE7860224B1B78DBB21946A4
S1130770224A7B6842F821301E4B1B78DBB21A46B2
S11307801F4B53F822307A689A4209D9194B1B78C7
S1130790DBB219461A4A7B6842F8213000E000BFF8
S11307A0144B1B78DBB20133DAB2124B1A70114BC3
S11307B01B78DBB20F2BC9D9124B1B68002B02D05C
S11307C0104B1B689847FFF757FE034603F470630A
S11307D0002B0AD04FF47060FFF71CFE0A4B1B6815
S11307E0002B02D0084B1B68984700BF0837BD4652
S11307F080BD00BF1C010020C0390000D4000020CF
S11308000C0000201401002018010020B0B491B0A5
S113081000AF4FF0FF33BB63EC237B634F4B07F117
S113082018041D460FCD0FC495E8030084E80300A7
S11308304B4B3C1D1D460FCD0FC42B682360012379
S1130840FB6344E0FB6B9B0007F14002134453F845
S11308503C3C013B434A52F823301A02FB6B9B0099
S113086007F140010B4443F8282CFB6B9B0007F174
S11308704002134453F83C3C013B3B4A52F82320CA
S1130880FB6B9B0007F140010B4453F8283CB3FB7E
S1130890F2F2FB6B9B0007F140010B4443F8282C58
S11308A0FB6B9B0007F14002134453F8283C7A6B1E
S11308B09A4209D9FB6B9B0007F14002134453F899
S11308C0283C7B63FB6BBB63FB6B0133FB63FB6B00
S11308D0042BB7DDBB6BB3F1FF3F02D14FF0FF3305
S11308E036E0BB6B013B1B013B633A6BBB6B013BCB
S11308F09B0007F140010B4453F8283CC3F5807377
S1130900D900BB6B9B0007F14000034453F8283C1B
S1130910C3F58073B1FBF3F3D31A3B63BB6B0133B1
S11309209B0007F14002134453F8283CC3F580733D
S1130930DA00BB6B9B0007F140010B4453F8283CE1
S1130940C3F58073B2FBF3F23B6B13443B633B6B25
S113095018464437BD46B0BC704700BFD0390000CC
S1130960E8390000D40000200C00002080B584B0D9
S113097000AF0346FB7101F0C9FBF860FFF78EFD81
S1130980FFF7CAFDFFF7E8FDFB791846FFF702FE03
S1130990F86801F0CAFB00BF1037BD4680BD0000F7
S11309A080B483B000AF0346FB71FB79002B03D006
S11309B0054B01221A6602E0034B00221A6600BFAF
S11309C00C37BD4680BC704700A0084080B483B09B
S11309D000AF786000BF054B5A6E7B681340002B54
S11309E0F9D100BF0C37BD4680BC704700A0084059
S11309F080B483B000AF7860054B9A6A7B68DB43B0
S1130A00034913408B6200BF0C37BD4680BC70475E
S1130A1000A0084080B500AF00222849002001F062
S1130A2041FE00222549012001F03CFE0022234919
S1130A30022001F037FE00222049032001F032FE9B
S1130A4000221E49042001F02DFE00221B4905202E
S1130A5001F028FE00221949062001F023FE00229D
S1130A601649072001F01EFE0022FF21002001F09C
S1130A70D7FE0022FF21012001F0D2FE0022FF2137
S1130A80022001F0CDFE0022FF21032001F0C8FE68
S1130A900022FF21042001F0C3FE0022FF210520D3
S1130AA001F0BEFE0022FF21062001F0B9FE002263
S1130AB0FF21072001F0B4FE00BF80BD00F00FF05D
S1130AC080B500AF00222649072001F0EBFD00228B
S1130AD02449062001F0E6FD00222249052001F008
S1130AE0E1FD00221F49042001F0DCFD00221D4924
S1130AF0032001F0D7FD00221A49022001F0D2FDA3
S1130B0000221849012001F0CDFD00224FF02041C0
S1130B10002001F0C7FD00220721072001F080FE1C
S1130B2000220721062001F07BFE00220721052078
S1130B3001F076FE00220721042001F071FE00225C
S1130B400721032001F06CFE00220721022001F09E
S1130B5067FE00220721012001F062FE00BF80BD74
S1130B6000E00F5000E00FF080B582B000AF034604
S1130B70FB710121244800F0EFFE0321234801F01A
S1130B80FDF84021224800F0B5FD012001F042FAB1
S1130B900121204800F0E0FE4FF0FF30FFF728FF6E
S1130BA01D4801F01DFC0121082001F077FC012102
S1130BB0102001F073FC0121802001F06FFC012161
S1130BC04FF4807001F06AFC01214FF4007001F0D1
S1130BD065FCFB79002B0DD04FF4402001F0DEFEC4
S1130BE04FF4803001F038FC0C4BDB6F0B4A43F0C0
S1130BF00803D367FFF70EFF4FF0FF30FFF7E6FE61
S1130C0000BF0837BD4680BDD0433E0002001E0031
S1130C1080002A0000362C002C41000000800C408B
S1130C2080B58AB000AF78607B6842F20E7293425E
S1130C3002DD42F20F737B607B6813F57A7F01DC7F
S1130C403D4B7B607B68002B06DA786802F05EFE21
S1130C5078600123BB6101E00023BB614FF0FF30EA
S1130C60FFF7B4FE0120FFF79BFE00F06DF80123AF
S1130C70FB6100233B6254E07A68FB6992FBF3F268
S1130C802E4B83FB02139910D317C91A0B469B00F2
S1130C900B445B00D11A0B46FB82BB69012B04D1C8
S1130CA03B6A032B01D11023FB82FB8A244A32F8CE
S1130CB01330BB8200237B6227E022493A6A134641
S1130CC0DB009B1A5B00CA187B6A1344CB331B7886
S1130CD03B611C493A6A1346DB009B1A5B00CA1845
S1130CE07B6A1344C4331B78FB60BA8A7B6A42FA7A
S1130CF003F303F00103002B04D001223969F868DF
S1130D0001F0ECFB7B6A01337B627B6A062BD4DD4A
S1130D10FA6913469B0013445B00FB613B6A013391
S1130D203B623B6A032BA7DD0020FFF739FE00BFBF
S1130D302837BD4680BD00BF19FCFFFF67666666A5
S1130D4008410000503E000080B500AF0022782129
S1130D50012001F065FD00227821022001F060FDF0
S1130D6000227821032001F05BFD00227821042079
S1130D7001F056FD00227821052001F051FD0022EA
S1130D807821062001F04CFD00227821072001F093
S1130D9047FD00BF80BD000080B58AB000AF786019
S1130DA0786802F0F7FD0346BB6100233B624FF015
S1130DB0FF30FFF70BFE0120FFF7F2FDFFF780FE87
S1130DC000233B6245E03A6ABB699A4203DA7B68D6
S1130DD01B787B6201E020237B627B6A203B7B6281
S1130DE0214A7B6A32F81330FB820023FB6127E03F
S1130DF01E493A6A1346DB009B1A9B00CA18FB691A
S1130E0013440E331B783B6118493A6A1346DB00DE
S1130E109B1A9B00CA18FB6913441B78FB60FA8A6F
S1130E20FB6942FA03F303F00103002B05D0FB68CE
S1130E3039690122184601F051FBFB690133FB615A
S1130E40FB690D2BD4DD7B6801337B603B6A013386
S1130E503B623B6A062BB6DD0020FFF7A1FD00BF15
S1130E602837BD4680BD00BF50400000503E000002
S1130E7080B584B000AF78603960114A7B68134450
S1130E8003F583731B78FB600D4A7B68134403F5F9
S1130E9087731B78BB603B68002B06D0FB68B9687E
S1130EA00122184601F01AFB05E0FB68B96800222C
S1130EB0184601F013FB00BF1037BD4680BD00BFCC
S1130EC0503E000080B487B000AFF860B9607A602B
S1130ED0FB6803F10473DA00BB6813449B007B6175
S1130EE07B697A681A6000BF1C37BD4680BC7047B6
S1130EF080B485B000AFF860B9607A60FB681A68A6
S1130F00BB68DB431A407B681A43FB681A6000BF66
S1130F101437BD4680BC704780B582B000AF78609E
S1130F2039607B681C4A934202D07B681B4A934217
S1130F3000BF3B681B78DA073B685B789B07134369
S1130F401A463B685B681B0613433A68127A12021E
S1130F5013433A68527A12011A437B681A603B6859
S1130F609B7A1B071A463B68DB7A1B041A433B68CF
S1130F70DB681B02134343F0807343F0B0037A68C9
S1130F80536078683B681B7C1A460021FFF79AFF80
S1130F9000BF0837BD4680BD00100040001400406B
S1130FA080B584B000AFF860B96011461A460B46AC
S1130FB0FB711346BB71FB680B4A934202D0FB687A
S1130FC00A4A934200BFF868BB79DB001A4608213D
S1130FD0FFF78EFFBB681A02FB791A43FB68DA61DC
S1130FE000BF1037BD4680BD001000400014004013
S1130FF080B487B000AFF860B9607A60FB6803F131
S11310000473DA00BB6813449B007B617B697A68D4
S11310101A6000BF1C37BD4680BC704780B485B0E1
S113102000AF786039607B6803F10473DA003B68D1
S113103013449B00FB60FB681B6818461437BD46CD
S113104080BC704780B483B000AF786001227B68B5
S113105002FA03F318460C37BD4680BC704780B4CF
S113106085B000AF78607B68002B03D07B68B3F554
S1131070004F00BF7B68B3FA83F3DBB2C3F11F03F5
S1131080FB60FB6818461437BD4680BC70470000FF
S113109080B400AF034BDB6C1B0EDBB21846BD46BD
S11310A080BC7047B081E00F80B400AF034BDB6CB1
S11310B01B0CDBB21846BD4680BC7047B081E00F04
S11310C080B582B000AFFFF7EFFF03464A2B04D090
S11310D0792B02D0482B23D024E0154B1B699BB2FB
S11310E01B029BB203F47C53FB80114B9B691B09CD
S11310F01B0103F0F0039AB2FB881343FB800C4BF3
S1131100DB691B0903F00F039AB2FB881343FB80CE
S1131110FB88B3F5017F01D3064B04E0064B02E0E4
S1131120054B00E0002318460837BD4680BD00BFCC
S1131130D0FF0FE000366E010048E80180B584B0AE
S113114000AF78600123FB60FFF7BAFF02467B68BB
S1131150934204D80023FB600023BB600BE0FFF73D
S1131160AFFF03465B007A689A4202D80123BB6052
S113117001E00223BB60FA681E210848FFF738FF2C
S1131180064B5B6823F48072BB681B02034913435C
S11311904B6000BF1037BD4680BD00BF00800C40CF
S11311A080B582B000AF1E210448FFF737FF786096
S11311B07B6818460837BD4680BD00BF00800C40E0
S11311C080B582B000AF214B5B6903F4E063B3F5F3
S11311D0007F1CD0B3F5007F05D8002B25D0B3F5D4
S11311E0807F1FD02AE0B3F5C06F24D0B3F5E06F41
S11311F01ED0B3F5407F21D1FFF74AFF0346122BDF
S113120002D9134B7B601CE0124B7B6019E0FFF7A3
S11312103FFF0346122B02D90F4B7B6011E00F4BAB
S11312207B600EE00E4B7B600BE00E4B7B6008E0B6
S11312300D4B7B6005E00D4B7B6002E000237B607F
S113124000BF7B6818460837BD4680BD00800C404F
S1131250804F120040420F0040B56400C0CF6A00C6
S1131260C0D8A700809FD500406F4001003FAB016C
S113127080B582B000AF0D4800F0D2FC0346FB708D
S1131280FB78072B05D0092B07D1FEF7C9FF78603F
S113129006E0FFF795FF786002E000237B6000BF63
S11312A07B6818460837BD4680BD00BF06000E00A7
S11312B080B485B000AF78603960204B5B6803F080
S11312C00703FB60FB68012B01D9042B02D1002327
S11312D0FB7202E00123FB7200BF7B68184A934251
S11312E007D9FB7A002B01D0052300E00423FB601F
S11312F016E07B68124A93420BD87B68114A9342EA
S113130007D9FB7A002B01D0032300E00123FB6003
S113131006E0FB7A002B01D0022300E00023FB60EF
S1131320064B5B6823F007020449FB6813434B60D8
S113133000BF1437BD4680BC704700BF00000C409E
S11313400048E8010024F40080B582B000AF0E4BE1
S1131350DB6B002B14BF01230023FB710A4B41F606
S11313607132DA63FEF752FF034600211846FFF795
S11313709FFFFB79002B02D0034B0022DA6300BFEE
S11313800837BD4680BD00BF00000C4080B584B066
S113139000AF786039600C4BDB6B002B14BF01236A
S11313A00023FB73084B41F67132DA6339687868BD
S11313B0FFF77EFFFB7B002B02D0034B0022DA6396
S11313C000BF1037BD4680BD00000C4090B585B00D
S11313D000AF78600023BB607B68344A934203D03B
S11313E0334A934200D000E000BF786800F018FC54
S11313F00346FB607B682D4A934203D02C4A9342F8
S113140006D00CE02B4B9B6A03F00303FB6006E061
S1131410284B9B6A9B0803F00303FB6000BFFB6837
S1131420032B39D801A252F823F000BF6314000043
S11314303D140000451400004D140000FEF788FF21
S1131440B8602DE0FEF794FFB86029E0FEF7C4FE13
S11314500446FFF7A5FE0346013324FA03F3BB60F9
S11314601EE00023BB607B68104A934203D07B6874
S11314700F4A934213D10F4B9A6A7B680B498B42F4
S113148001D1102300E0142322FA03F3002B06D029
S1131490FEF766FFB86002E00023BB6000E000BF17
S11314A0BB6818461437BD4690BD00BF02001E003D
S11314B00300200000800C4080B483B000AF78604B
S11314C0094B5B6D03F00103002B07D100BF064BF2
S11314D01A6D7B681340002BF9D100E000BF0C3774
S11314E0BD4680BC704700BF00800C4080B582B010
S11314F000AF104800F094FB0346FB70FB78032B0D
S113150007D0092B09D0022B0BD1FEF731FF7860ED
S11315100AE0FEF71DFF786006E0FEF781FE7860C2
S113152002E000237B6000BF7B6818460837BD4695
S113153080BD00BF0723260080B400AF00BFBD46B6
S113154080BC704780B400AF00BFBD4680BC70470C
S113155090B585B000AF78607B681B0903F00F037A
S1131560BB60BB68013B0C2B00F2AE8001A252F8B9
S113157023F000BFA9150000C9160000C916000019
S1131580B9150000C9160000C9160000CD150000E9
S1131590FB15000087160000C9160000C9160000DC
S11315A0C9160000E11500004B4B1B689B0B03F0B0
S11315B007030133FB608AE0474B9B6803F00F038A
S11315C0FB60F868FFF73EFDF86080E0424B5B6823
S11315D003F00F03FB60F868FFF734FDF86076E072
S11315E03D4B5B681B0A03F00103FB60FB6801339E
S11315F01846FFF727FDF86069E07B68374A934295
S113160018D0364A934203D8354A934207D036E07D
S1131610344A934219D0344A934226D02FE02E4BB9
S11316209B6E1B0903F00F03FB60F868FFF70AFDCC
S1131630F86027E0284B9B6E1B0A03F00F03FB6046
S1131640F868FFF7FFFCF8601CE0234B9B6E1B0B54
S113165003F003041020FFF702FD03462344FB605C
S1131660F868FFF7EFFCF8600CE01B4B9B6E03F08F
S11316700303FB60F868FFF7E5FCF86002E0012370
S1131680FB6000BF23E07B68184A934203D0184AEA
S113169093420AD014E0104B1B6F03F00303FB606A
S11316A0F868FFF7CFFCF8600DE00B4B1B6F1B09CC
S11316B003F00303FB60F868FFF7C4FCF86002E082
S11316C00123FB6000BF02E00123FB6000BFFB6855
S11316D018461437BD4690BD00800C408026160085
S11316E08016120080002A0080062E0090071A003F
S11316F090171C0090B585B000AF786039607B68A6
S11317001B0903F00F03FB60FB68013B0C2B00F289
S11317100F8101A252F823F04D1700003119000087
S1131720311900008117000031190000311900003F
S1131730C91700001B180000DD1800003119000053
S11317403119000031190000A91700003B68002B73
S113175002D03B68082B00BFFFF7F6FD774B1B68F0
S113176023F4E0323B68013B9B03744913430B6051
S1131770FEF732FDB8600021B868FFF707FED8E035
S11317803B68002B03D03B68B3F5007F00BF38688B
S1131790FFF765FC3860694B9B6823F00F026749CB
S11317A03B6813438B60C4E03868FFF758FC03467A
S11317B0013B3B60614B5B6823F480723B681B0216
S11317C05E4913434B60B4E03B68002B03D03B6895
S11317D0B3F5007F00BFFFF7B7FDFEF7FDFC02463F
S11317E03B68B2FBF3F31846FFF7A8FC3868FFF731
S11317F036FC3860514B5B6823F00F024F493B685D
S113180013434B60FEF7E8FCB8600021B868FFF7AB
S1131810BDFDB868FFF792FC8BE07B68484A9342B1
S11318201ED0474A934203D8464A934207D054E015
S1131830454A934225D0454A93423ED04DE0042088
S1131840FFF73AFE3868FFF70AFC38603B4B9B6EA3
S113185023F0F0023B681B01384913438B663CE0DC
S11318600420FFF729FE3868FFF7F9FB3860334B93
S11318709B6E23F470623B681B02304913438B66F2
S11318802BE03B680F2B02D93B68802B00BF042060
S1131890FFF712FE3868FFF7E2FB3860274B9B6EB8
S11318A023F440541020FFF7DAFB02463B689B1AEE
S11318B01B03224A234393660FE00420FFF7FCFD39
S11318C03868FFF7CCFB38601C4B9B6E23F0030297
S11318D01A493B6813438B6600BF2AE07B681C4AA5
S11318E0934203D01B4A934210D020E04020FFF7DC
S11318F0E3FD3868FFF7B3FB3860104B1B6F23F030
S113190003020E493B6813430B6710E04020FFF7C6
S1131910D3FD3868FFF7A3FB3860084B1B6F23F037
S113192030023B681B01054913430B6700BF00E00D
S113193000BF00BF1437BD4690BD00BF00800C40FF
S1131940802616008016120080002A0080062E00D1
S113195090071A0090171C0080B586B000AF78601D
S11319600B46FB7000233B617B681B0A03F00F03EB
S1131970013B092B44D801A252F823F0B719000007
S1131980BD190000A5190000011A0000011A000089
S1131990C3190000CD190000011A0000011A00004B
S11319A0D7190000184B7B61FEF716FC0346184656
S11319B0FFF7C4FB12E0154B7B610FE0144B7B6116
S11319C00CE0144B7B6101233B6107E0124B7B610C
S11319D010233B6102E0114B7B6100BF7B681B0B52
S11319E003F01F03FB603B69002B02D03869FFF74B
S11319F063FDFB781A46F9687869FFF7F9FA00E0A5
S1131A0000BF1837BD4680BD40800C4008800C40A4
S1131A1044800C4058800C4060800C4078800C401E
S1131A2090B585B000AF78607B6803F47813B3F5A4
S1131A30D01F00F0B480B3F5D01F1AD8B3F5602FCF
S1131A4000F0C880B3F5602F08D8B3F5003F45D047
S1131A50B3F5802F36D0002B30D0D2E0B3F5901FF1
S1131A6045D0B3F5B01F50D0B3F5801F00F0B68059
S1131A70C7E0B3F5181F00F0B580B3F5181F0BD8F5
S1131A80B3F5F01F2ED0B3F5001F00F08380B3F53B
S1131A90E01F00F09180B4E0B3F5301F56D0B3F5E9
S1131AA0301F03D8B3F5281F3DD0AAE0B3F5381F83
S1131AB063D0B3F5781F00F09980A2E0FEF7B0FB85
S1131AC0F860A1E0FEF7ACFBF860524B9B6803F0B2
S1131AD00F03FA6822FA03F3FB6095E0FEF77CFB40
S1131AE0F86091E04C48FFF771FCF8608CE04A48DC
S1131AF0FFF76CFCF860474B9B6E1B0903F00F0368
S1131B00FA6822FA03F3FB607EE04348FFF75EFCC9
S1131B10F860404B9B6E1B0A03F00F03FA6822FA2D
S1131B2003F3FB6070E03C48FFF750FCF860394B6E
S1131B309B6E1B0B03F003041020FFF790FA03467F
S1131B402344FA6822FA03F3FB605DE03248FFF7AE
S1131B503DFCF8602F4B9B6E1B0B03F00303FA68EC
S1131B6022FA03F3FB602B4BDB6F03F00703013313
S1131B70FA68B2FBF3F3FB6046E02748FFF726FC64
S1131B80F860244B9B6E03F00303FA6822FA03F314
S1131B90FB6039E02148FFF719FCF86034E01F4886
S1131BA0FFF714FCF8601B4B1B6F03F00303FA6888
S1131BB022FA03F3FB6027E01848FFF707FCF860FC
S1131BC0144B1B6F1B0903F00303FA6822FA03F397
S1131BD0FB6019E0FFF74CFBF86015E0FFF7F0FA43
S1131BE0F86011E0FFF782FCF8600DE0FEF7F4FA0C
S1131BF004467868FFF7ACFC0346B4FBF3F3FB60E0
S1131C0002E00023FB6000BFFB6818461437BD46A2
S1131C1090BD00BF00800C4002001E0003002000A5
S1131C2080B485B000AF78600123FB737B6803F058
S1131C300F03BB60BB68013B062B00F2938001A23B
S1131C4052F823F0611C0000971C0000D31C000014
S1131C50651D0000651D00000F1D0000311D000002
S1131C60454BDB6A03F47053B3F5805F09D0B3F5D9
S1131C70005F03D0B3F5006F06D008E00223FB73C6
S1131C8008E00323FB7305E00423FB7302E0052350
S1131C90FB7300BF69E0384B9B6A03F00303022B1C
S1131CA006D0032B07D0012B08D10323FB730FE0CD
S1131CB00223FB730CE00623FB7309E02E4B9B6AA3
S1131CC003F48033002B02D00A23FB7300E000BF2F
S1131CD04BE0294B9B6A03F00C03082B06D00C2B1A
S1131CE007D0042B08D10323FB730FE00223FB73FB
S1131CF00CE00623FB7309E01F4B9B6A03F480137B
S1131D00002B02D00A23FB7300E000BF2DE01A4B26
S1131D101B6803F08053002B03D0B3F1805F03D022
S1131D2023E00723FB7302E00923FB7300BF1CE0DD
S1131D30114BDB6A03F46033B3F5803F08D0B3F58D
S1131D40003F08D0B3F5004F08D10923FB7308E026
S1131D500223FB7305E00323FB7302E00123FB73FF
S1131D6000BF02E00023FB7300BFFB7B184614375F
S1131D70BD4680BC704700BF00800C4080B588B071
S1131D8000AF78600B46FB700323FB610323FB76F3
S1131D9000233B617B6803F00F03FB60FB68013B9E
S1131DA0062B00F2288101A252F823F0C91D00007D
S1131DB09F1E00009F1E0000F71F0000F71F000079
S1131DC0651F00008F1F0000FB78023B082B00F208
S1131DD0148101A252F823F0FD1D0000071E00002B
S1131DE0111E0000531E0000FB1F0000FB1F00001B
S1131DF0FB1F0000FB1F0000FB1F00000423FB610E
S1131E000023FB7631E00323FB610123FB762CE006
S1131E100223FB610223FB76FFF752F903460133E9
S1131E201846FFF78BF9FEF77BFA0246764B9A4287
S1131E3006D9764B1B68754A43F06003136014E0BF
S1131E40724B1B6823F06003704A43F02003136055
S1131E500BE00123FB610323FB76FFF731F9034613
S1131E6001331846FFF76AF900BFFB7E0122012106
S1131E70184600F0EDF8FFF767FAFFF75DFB634AD9
S1131E80FB695362FEF7A8F9B860B868FFF756F922
S1131E900021B868FFF77AFAFFF754FBB0E0FB784B
S1131EA0013B092B00F2AB8001A252F823F000BFE2
S1131EB0D91E0000DF1E0000EF1E0000FF1F0000FF
S1131EC0FF1F0000FF1E0000FF1F0000FF1F000097
S1131ED0FF1F00001B1F000000237B6122E0012282
S1131EE00121002000F0B4F802237B611AE00122F2
S1131EF00121012000F0ACF801237B6112E0FEF720
S1131F006BF9B860B868FFF719F901220421404859
S1131F10FFF76EF803237B6104E000237B61012358
S1131F203B6100BFFB68022B0DD1384B9B6A23F445
S1131F30803323F003037A691A433B691B04334952
S1131F4013438B625CE0314B9B6A23F4801323F0D0
S1131F500C037A6992001A433B691B052B4913430E
S1131F608B624DE0FB78072B02D0092B07D047E0AA
S1131F70264B1B68254A23F08053136006E0234B4D
S1131F801B68224A43F08053136000BF38E0FB789B
S1131F90032B14D0092B22D0022B00D030E00122D5
S1131FA00121002000F054F8184B40225A6200BF6F
S1131FB0164BDB6A03F48033002BF9D01AE00122BC
S1131FC00121012000F044F8104B60225A6200BF46
S1131FD00E4BDB6A03F40033002BF9D00AE00B4B01
S1131FE020225A6200BF094BDB6A03F40043002B32
S1131FF0F9D000BF04E000BF02E000BF00E000BF72
S11320002037BD4680BD00BF0048E80100800C4079
S113201040800C4080B483B000AF78600B4B9B6D64
S113202003F00803002B0CD17B6803F007037B60EB
S1132030064BDB6F23F0070204497B681343CB672D
S113204000E000BF0C37BD4680BC704700800C40E8
S113205080B586B000AF0346FB710B46BB711346D7
S11320607B71FB79042B48D801A252F823F000BFFE
S1132070BD200000AF200000932000008520000058
S1132080A120000001233B610223FB6001237B614B
S11320901DE004233B610823FB6003237B6116E0FE
S11320A010233B612023FB6005237B610FE0402369
S11320B03B618023FB6007237B6108E04FF480735E
S11320C03B614FF40073FB6009237B6100BFBB7964
S11320D0002B0ED00B4A3B6913627B79002B0DD089
S11320E000BF79690848FEF799FF0346002BF8D032
S11320F004E0044AFB68136200E000BF1837BD46E1
S113210080BD00BF00800C402C800C4080B483B0A4
S113211000AFEFF310833B603B687B6072B67B6873
S113212018460C37BD4680BC704780B483B000AFFE
S113213078607B68002B00D162B600BF0C37BD46C7
S113214080BC704780B483B000AF03463960FB7134
S1132150FB79002B0DD0FB79012B0AD0FB79022BE4
S113216007D0FB79032B04D0FB79042B01D0FB7936
S1132170052B01223B6802FA03F30749FA79184652
S11321801346DB0013449B000B441433186000BF58
S11321900C37BD4680BC70470060004080B483B0FB
S11321A000AF03463960FB71FB79002B0DD0FB793E
S11321B0012B0AD0FB79022B07D0FB79032B04D027
S11321C0FB79042B01D0FB79052B01223B6802FA31
S11321D003F30749FA7918461346DB0013449B00BE
S11321E00B441033186000BF0C37BD4680BC7047E9
S11321F00060004080B483B000AF03460A46FB7120
S11322001346BB71FB79002B0ED0FB79012B0BD04D
S1132210FB79022B08D0FB79032B05D0FB79042B27
S113222002D0FB79052B02D1BB79032B00BF0C49EB
S1132230FA791346DB0013449B000B441B6823F01C
S11322400301BB790648FA7919431346DB001344AA
S11322509B000344196000BF0C37BD4680BC704727
S11322600060004080B584B000AFB9607B60034675
S1132270FB731346BB73FB7B002B0DD0FB7B012B45
S11322800AD0FB7B022B07D0FB7B032B04D0FB7B08
S1132290042B01D0FB7B052BBB7B002B0DD07B6873
S11322A0002B05D0FB7BB9681846FFF777FF04E0E5
S11322B0FB7BB9681846FFF745FFBB68072B20D89E
S11322C02D49FA7B1346DB0013449B000B44043373
S11322D01A68BB689B000F2101FA03F3DB43134028
S11322E0B97BBA68920001FA02F211462248FA7BDD
S11322F019431346DB0013449B0003440433196061
S113230025E01D49FA7B1346DB0013449B000B4474
S113231008331A68BB6803F18043083B9B000F2114
S113232001FA03F3DB4302EA0301BA7BBB6803F15E
S11323308043083B9B0002FA03F30F48FA7B1943DE
S11323401346DB0013449B00034408331960BB7B32
S1132350002B0DD17B68002B05D0FB7BB968184698
S1132360FFF71CFF04E0FB7BB9681846FFF7EAFEA1
S113237000BF1037BD4680BD0060004080B483B00C
S113238000AF0346FB71FB79002B06D0084B1B689A
S1132390074A43F00103136005E0054B1B68044A38
S11323A023F00103136000BF0C37BD4680BC7047A7
S11323B000A0084080B487B000AFF860B9607A60CC
S11323C0FB6803F10473DA00BB6813449B007B6170
S11323D07B697A681A6000BF1C37BD4680BC7047B1
S11323E080B584B000AF78601A4B5B68FB60002056
S11323F0FFF7C4FFFB6823F4830323F01F03FB6090
S11324007B685B68FA681343FB607B681B7A1A4637
S1132410FB681343FB607B685B7A1A46FB681343D3
S1132420FB607B68DB68FA681343FB607B681B8A8C
S11324301A46FB681343FB60064AFB6853607B68DB
S11324401B78002B02D00120FFF798FF00BF103744
S1132450BD4680BD00A0084080B485B000AF786060
S11324600D4B5B68FB60FB6823F48033FB607B6887
S1132470002B08D0B3F5803F00D005E0FB6843F49F
S11324808033FB6000E000BF034AFB68536000BF79
S11324901437BD4680BC704700A0084080B483B0A8
S11324A000AF03460A46FB8013467B717B79002B01
S11324B006D0094B9A68FB88074913438B6006E0F2
S11324C0054B9A68FB88DB43034913408B6000BFCC
S11324D00C37BD4680BC704700A0084080B584B06E
S11324E000AFF860B9601346FB71FB68072B00F27C
S11324F0B38001A252F823F0192500004125000001
S11325006925000091250000B9250000E12500009F
S11325100926000031260000BB681F2B06DCBB68BF
S1132520FA7919464F48FFF745FF96E0BB68203B10
S1132530BB60BB68FA7919464B48FFF73BFF8CE058
S1132540BB681F2B06DCBB68FA7919464748FFF7BE
S113255031FF82E0BB68203BBB60BB68FA79194657
S11325604348FFF727FF78E0BB681F2B06DCBB68F6
S1132570FA7919463F48FFF71DFF6EE0BB68203B20
S1132580BB60BB68FA7919463B48FFF713FF64E068
S1132590BB681F2B06DCBB68FA7919463748FFF77E
S11325A009FF5AE0BB68203BBB60BB68FA79194657
S11325B03348FFF7FFFE50E0BB681F2B06DCBB6807
S11325C0FA7919462F48FFF7F5FE46E0BB68203B31
S11325D0BB60BB68FA7919462B48FFF7EBFE3CE079
S11325E0BB681F2B06DCBB68FA7919462748FFF73E
S11325F0E1FE32E0BB68203BBB60BB68FA79194658
S11326002348FFF7D7FE28E0BB681F2B06DCBB6816
S1132610FA7919461F48FFF7CDFE1EE0BB68203B40
S1132620BB60BB68FA7919461B48FFF7C3FE14E088
S1132630BB681F2B06DCBB68FA7919461748FFF7FD
S1132640B9FE0AE0BB68203BBB60BB68FA79194657
S11326501348FFF7AFFE00E000BF00BF1037BD46D0
S113266080BD00BF40A0084050A0084044A00840DE
S113267054A0084048A0084058A008404CA0084076
S11326805CA00840CCA00840B4A00840D0A00840FA
S1132690B8A00840D4A00840BCA00840D8A0084076
S11326A0C0A0084080B487B000AFF860B9607A6019
S11326B0FB68072B00F2AC8001A252F823F000BFA4
S11326C0E126000005270000292700004D2700000F
S11326D07127000099270000C1270000E9270000A6
S11326E04E4B1B6C7B61BB68DB437A6913407B6197
S11326F0BA687B6813407A6913437B61474A7B69F4
S1132700136486E0454B5B6C7B61BB68DB437A6991
S113271013407B61BA687B6813407A6913437B6119
S11327203E4A7B69536474E03C4B9B6C7B61BB68A1
S1132730DB437A6913407B61BA687B6813407A692A
S113274013437B61354A7B69936462E0334BDB6CF2
S11327507B61BB68DB437A6913407B61BA687B6841
S113276013407A6913437B612C4A7B69D36450E03C
S11327702A4BD3F8CC307B61BB68DB437A691340C6
S11327807B61BA687B6813407A6913437B61234A8F
S11327907B69C2F8CC303CE0204BD3F8D0307B616D
S11327A0BB68DB437A6913407B61BA687B6813407A
S11327B07A6913437B61194A7B69C2F8D03028E0F7
S11327C0164BD3F8D4307B61BB68DB437A69134082
S11327D07B61BA687B6813407A6913437B610F4A53
S11327E07B69C2F8D43014E00C4BD3F8D8307B6149
S11327F0BB68DB437A6913407B61BA687B6813402A
S11328007A6913437B61054A7B69C2F8D83000E0DA
S113281000BF00BF1C37BD4680BC704700A0084005
S113282080B487B000AFF860B9607A60FB68072BAA
S113283000F2AC8001A252F823F000BF5D28000032
S113284081280000A5280000C9280000ED28000008
S1132850152900003D290000652900004E4B1B6D21
S11328607B61BB68DB437A6913407B61BA687B6830
S113287013407A6913437B61474A7B69136586E099
S1132880454B5B6D7B61BB68DB437A6913407B61BD
S1132890BA687B6813407A6913437B613E4A7B695B
S11328A0536574E03C4B9B6D7B61BB68DB437A6989
S11328B013407B61BA687B6813407A6913437B6178
S11328C0354A7B69936562E0334BDB6D7B61BB68A2
S11328D0DB437A6913407B61BA687B6813407A6989
S11328E013437B612C4A7B69D36550E02A4BD3F8B0
S11328F0B4307B61BB68DB437A6913407B61BA689F
S11329007B6813407A6913437B61234A7B69C2F86D
S1132910B4303CE0204BD3F8B8307B61BB68DB4378
S11329207A6913407B61BA687B6813407A69134300
S11329307B61194A7B69C2F8B83028E0164BD3F89A
S1132940BC307B61BB68DB437A6913407B61BA6846
S11329507B6813407A6913437B610F4A7B69C2F831
S1132960BC3014E00C4BD3F8C0307B61BB68DB4354
S11329707A6913407B61BA687B6813407A691343B0
S11329807B61054A7B69C2F8C03000E000BF00BF2C
S11329901C37BD4680BC704700A0084080B483B09B
S11329A000AF7860064B5B6823F4E01204497B684F
S11329B013434B6000BF0C37BD4680BC704700BF5B
S11329C000A0084080B487B000AFF860B9607A60B6
S11329D0FB6803F10473DA00BB6813449B007B615A
S11329E07B697A681A6000BF1C37BD4680BC70479B
S11329F080B582B000AF78600B46FB70FB78002B8B
S1132A0001D000F0EFFA7B681B7D184600F022F934
S1132A107B685B789B007A6892781A437B689B6832
S1132A201A437B68DB681A437B68DB785B021A43D2
S1132A307B681B799B021A437B685B795B031A43AF
S1132A407B689B795B041A437B68DB791B041A431C
S1132A507B685B7C9B053F4913430B607B681B7859
S1132A600021184600F0D6F87B681B7E1A467B6866
S1132A70DB7E5B001A437B685B7E9B001A437B68AA
S1132A809B7E9B011A437B681B7F1B011A437B6857
S1132A905B7F1B021A437B689B7F9B021A437B6804
S1132AA01B6A1A437B6893F824301B051A437B681E
S1132AB093F825309B051A437B689B6A2549134389
S1132AC08B607B689B8D1A467B6893F83B309B0236
S1132AD01A437B6893F83C309B031A437B6893F852
S1132AE03D309B041A437B6893F83E309B051A43A0
S1132AF07B6893F834305B001A437B6893F8353075
S1132B009B001A437B6893F83630DB001A437B68DA
S1132B1093F837301B011A437B6893F838305B0114
S1132B201A437B6893F839309B011A437B6893F806
S1132B303A30DB0107491343CB607B681B6B1846B3
S1132B4000F0F2F97B681A7C024B1A6100BF083767
S1132B50BD4680BD00C0084080B588B000AF786035
S1132B6039600023FB610123BB613F237B617B68E8
S1132B70002B03D12548FEF753FF78603B68002BF8
S1132B800CD03A687B689A4200BF07E0FB690133C6
S1132B90FB610122FB6902FA03F3BB613B68BA697A
S1132BA002FB03F37A68B2FBF3F27B6901339A42C6
S1132BB002D9FB69062BE9D93B68BA6902FB03F326
S1132BC07A68B2FBF3F3013B7B61114B5B6823F43E
S1132BD07F2323F4E0633B61FB691A027B691B03D7
S1132BE013433A6913433B61094A3B6953607B6968
S1132BF00133BA6902FB03F37A68B2FBF3F3FB60B7
S1132C00FB6818462037BD4680BD00BF80062E00F5
S1132C1000C0084080B584B000AF03460A46FB718B
S1132C201346BB710A4B1B6823F00303FB60FB795B
S1132C30FA681343FB60064AFB681360BB79002BF8
S1132C4001D000F081F900BF1037BD4680BD00BF40
S1132C5000C0084080B485B000AF0346FB71094B47
S1132C605B6823F44003FB60FB799B05FA6813431C
S1132C70FB60044AFB68536000BF1437BD4680BC48
S1132C80704700BF00C0084080B485B000AF034661
S1132C900A46FB711346BB71FB79002B0FD0012B45
S1132CA000D01AE00F4B5B6823F00303FB60BB7991
S1132CB0FA681343FB600B4AFB6853600DE0094B51
S1132CC05B6823F07003FB60BB791B01FA68134354
S1132CD0FB60044AFB68536000BF00BF1437BD4665
S1132CE080BC704700C0084080B584B000AF7860F5
S1132CF00023FB600AE0FB685B017A681344F9680F
S1132D00184600F00BF8FB680133FB60FB680F2BDF
S1132D10F1D900BF1037BD4680BD000080B584B036
S1132D2000AF786039607B685B68B3F5C03F7B684F
S1132D301B7A032B0AD13B680C2B07D03B680D2B65
S1132D4004D03B680E2B01D03B680F2B00BF7B687F
S1132D501B7A032B0AD13B68002B07D03B68012B5D
S1132D6004D03B68022B01D03B68032B00BF394BD6
S1132D709A6B3B685B00032101FA03F3DB431340C6
S1132D80FB607B681B7A1A463B685B0002FA03F31C
S1132D90FA681343FB602F4AFB6893633B68D8B21D
S1132DA07B68D97B7B681A7C7B685B8A00F05AF865
S1132DB07B685B7B5A047B689B7B9B0413437A6828
S1132DC0D28A13437A68128B1A437B685B681A436E
S1132DD07B685B7ADB041F491A433B682C331B0175
S1132DE00B4404331A607B68DA697B689B7A5B0462
S1132DF01A437B681B7B9B041A437B68DB7ADB04E6
S1132E0014491A433B681B010B4403F532731A60DF
S1132E103B68D8B27B68998A7B685B8B1A4600F062
S1132E2045F87B689B781A4639680B48FFF7CAFD5A
S1132E307B685B781A4639680848FFF7C3FD7B68EE
S1132E401B781A4639680648FFF7BCFD00BF1037E7
S1132E50BD4680BD00C008404CC0084054C0084076
S1132E6018C0084090B482B000AF0446084611462A
S1132E701A462346FB710346BB710B467B7113460E
S1132E807B80BA797B799B0142EA03017B885A03F0
S1132E900548FB790A432C331B0103441A6000BF25
S1132EA00837BD4690BC704700C0084080B485B068
S1132EB000AF0346FB710B46BB8013467B80194A67
S1132EC0FB792C331B01134404331B6823F47F6305
S1132ED023F00F03FB60BB88FA681343FB60114ABD
S1132EE0FB792C331B0113440433FA681A600D4A2E
S1132EF0FB791B01134403F532731B681B0C1B0481
S1132F00FB607B88FA681343FB60064AFB791B016C
S1132F10134403F53273FA681A6000BF1437BD46D0
S1132F2080BC704700C0084080B483B000AF7860B4
S1132F30044A7B6803F00F03136300BF0C37BD46DC
S1132F4080BC704700C0084080B400AF00BF0A4B8B
S1132F501B6D03F02003002BF9D1074B01225A61AA
S1132F6000BF054B1B6D03F02003002BF9D100BFFC
S1132F70BD4680BC704700BF00C0084080B400AFAD
S1132F8000BF0A4B1B6D03F02003002BF9D1074B44
S1132F9002225A6100BF054B1B6D03F02003002B76
S1132FA0F9D100BFBD4680BC704700BF00C00840D7
S1132FB080B400AF00BF0A4B1B6D03F02003002B4D
S1132FC0F9D1074B08225A6100BF054B1B6D03F072
S1132FD02003002BF9D100BFBD4680BC704700BF61
S1132FE000C0084080B483B000AF384B0022DA64DC
S1132FF0364B374A5A64354BDB68344A43F0010395
S1133000D36000BF314B1B6D03F02003002BF9D1BB
S11330102E4B0A225A612D4B00221A602B4B0022A0
S11330209A602A4B0022DA60284B00221A61274B4F
S113303000229A61254B00229A63244B0022DA6312
S1133040224B00225A6500237B6019E01F4A7B68EB
S11330502C331B01134400221A601C4A7B682C3356
S11330601B011344043300221A60184A7B681B01B5
S1133070134403F5327300221A607B6801337B60CA
S11330807B680F2BE2D900237B600FE00F4A7B683B
S11330904033002142F833100C4A7B684033DB0094
S11330A0134400225A607B6801337B607B680F2BDA
S11330B0ECD900BF054B1B6D03F02003002BF9D1A5
S11330C000BF0C37BD4680BC704700BF00C008403D
S11330D0FFFF7F0080B485B000AF78601A4B5B6956
S11330E0DBB29B00DBB203F03C03FB73164B1B69A2
S11330F09B09DBB203F00303DAB2FB7B1343FB73DC
S11331007B68FA7B9A70104B1B69DBB203F03F03B8
S1133110DAB27B685A700C4B9B691B09DBB21B014A
S1133120FB73094BDB691B09DBB203F00F03DAB253
S1133130FB7B1343FB737B68FA7B1A7000BF143765
S1133140BD4680BC704700BFD0FF0FE00000000008
S11331502DE9F04F0F4E376807F1010737600E4C29
S11331602568C5F800D000F099FB2060D0F800D0A5
S1133170BDE8F08F2DE9F04F074C2568C5F800D065
S113318000F08CFB2060D0F800D0BDE8F08F00DFA9
S113319070470000D80200205C08002080B483B08F
S11331A000AF03463960FB7197F90730002B0ADB47
S11331B03B68DAB20C4997F907305201D2B20B449A
S11331C083F800230AE03B68DAB20849FB7903F08C
S11331D00F03043B5201D2B20B441A7600BF0C37E2
S11331E0BD4680BC704700BF00E100E000ED00E098
S11331F080B582B000AF78607B68013BB3F1807F1B
S113320001D301230FE00A4A7B68013B5360072185
S11332104FF0FF30FFF7C2FF054B00229A60044BCA
S113322007221A60002318460837BD4680BD00BF38
S113323010E000E080B400AF034BDB6C1B0EDBB28C
S11332401846BD4680BC7047B081E00F80B582B09F
S113325000AF0E4B01221A64FFF7ECFF0346FB712B
S11332603B1D1846FFF736FFFB790F2B0AD93B7934
S1133270022B07D9064B1B6823F05003044A43F082
S11332801003136000BF0837BD4680BD00000C402A
S1133290C0800C4080B582B000AF0A237B60164B1F
S11332A01B781A463B1D1146184600F09BFA134B37
S11332B01B68184600F036FA104B1B68184600F0DD
S11332C00DFAFDF7A3FA03463B600D4B1B6801336F
S11332D00B4A13603B4619460A4800F0B2FA084B01
S11332E01B680A2BDBD13B461946074800F0A9FAB4
S11332F0034B00221A60D2E74D000020D0020020C8
S113330030010020B8060020E404002080B582B01B
S113331000AF0A237B60184B1B781A463B1D1146ED
S1133320184600F05FFA154B1B68184600F0FAF9CE
S1133330124B1B68184600F0D1F9114B1B68184654
S113334000F0CCF90F4B1B6800211846FDF790FDE7
S11333500C4B1B68013303F007030A4A1360094B43
S11333601B6801211846FDF783FD054B1B681846B1
S113337000F0D8F9CFE700BF4E000020600800201D
S1133380380100202801002080B500AF1B491C48EB
S113339000F06DFA1B4B1B68184600F09FF9174BA1
S11333A01B68B3F1FF3F03D11748FDF7F5FC1EE09E
S11333B0124B1B68002B07DB104B1B68102B03DC24
S11333C01248FDF7E9FC12E00C4B1B68102B07DDDB
S11333D00A4B1B68202B03DC0D48FDF7DDFC06E0DF
S11333E0064B1B68202B02DD0A48FDF7D5FC054B74
S11333F01B68184600F096F9C8E700BF2C010020AE
S1133400E40400203801002040410000484100004D
S1133410504100005841000080B500AF09490A48F6
S113342000F025FA094B1B68184600F057F9054BC4
S11334301B681846FDF7F4FB044B1B68184600F0A4
S113344071F9EBE72C010020B806002038010020B8
S113345080B582B002AFFFF7F9FE0020FDF786FACF
S11334600020FDF781FB0020FDF7DAFB2F48FDF774
S113347093FC2F4B2F4A1A602F4B00221A602F4BBC
S113348000221A602E4B2F4A1A602D4B1B682E4ABD
S1133490A2FB03239B091846FFF7AAFE0346002B51
S11334A000D0FEE70621294800F0F8F8284B274A07
S11334B01A60284B284A1A60284B294A1A60294B5B
S11334C0294A1A60294B2A4A1A60284B294A1A6049
S11334D00621294800F09EF90821284800F09AF9AD
S11334E0012300936423264A2649012000F058F85A
S11334F0022300936423244A2449022000F050F854
S1133500032300936423224A2249032000F048F84D
S1133510042300936423204A2049042000F040F847
S1133520064B1B680133054A1360F9E7604100004C
S11335305C080020DC020020D80200203C010020AE
S113354008000020809FD500D34D6210880600201B
S1133550D00200206008002090060020D402002041
S11335609806002034010020A00600203801002025
S1133570A8060020B0060020E4040020B8060020BD
S11335804001002095320000F80400200D330000B3
S1133590CC060020893300005403002019340000B5
S11335A080B489B000AFF860B9607A603B603B6872
S11335B003F18043013B9B007A681344FB61FB6980
S11335C01A1FFA614FF080721A60FB691A1FFA61C0
S11335D0BA681A600023BB6107E0FB691A1FFA612D
S11335E000221A60BB690133BB61BB69052BF4DDA2
S11335F0FB696FF006021A6000237B6108E0FB6937
S1133600043BFB61FB6900221A607B6901337B6127
S11336107B69072BF3DD2049FA6813465B001344EA
S1133620DB000B44FA691A601B49FA6813465B0015
S11336301344DB000B44043300221A601649FA6871
S113364013465B001344DB000B440833BA6A1A6068
S11336501149FA6813465B001344DB000B440C3336
S113366000221A600C49FA6813465B001344DB001D
S11336700B44103300221A600749FA6813465B00B2
S11336801344DB000B441433FA681A6000BF243778
S1133690BD4680BC704700BFDC02002080B485B00A
S11336A000AF786039600023FB600EE0FB68DB004C
S11336B07A68134400221A70FB68DB007A681344AA
S11336C0FA685A60FB680133FB60FA683B689A4207
S11336D0ECDB00BF1437BD4680BC704780B582B0B8
S11336E000AF786072B67B681B7883F00103DBB2AD
S11336F0002B04D07B6801221A7062B60BE0084BE1
S11337001B680122DA60064B1B687A6852681A61EA
S113371062B6FFF73CFD00BF0837BD4680BD00BF61
S11337205C08002080B584B000AF786072B60623D0
S1133730FB600423BB6024E02849BA6813465B009D
S11337401344DB000B440C331B68012B16D12349B3
S1133750BA6813465B001344DB000B4410331A6849
S11337607B685B689A4209D11C49BA6813465B00BE
S11337701344DB000B4408331B68FB60BB68013B4C
S1133780BB60BB68002BD7DCFB68062B03D17B68CE
S113379000221A701DE01149FA6813465B001344B5
S11337A0DB000B440C3300221A600C49FA68134600
S11337B05B001344DB000B4408331A68084B1B6896
S11337C09B689A4205DA7B6801221A7062B6FFF799
S11337D0DEFC62B600BF1037BD4680BDDC020020AF
S11337E05C08002080B582B000AF78603960084B77
S11337F01B687A6812685A607B681A683B681A44C6
S11338007B681A60FFF7C3FC00BF0837BD4680BD64
S11338105C08002080B483B000AF786039607B68B6
S113382001221A727B683A68DA607B6800221A7097
S11338303B685A1C7B685A6000BF0C37BD4680BC8D
S1133840704780B582B000AF786039607B681846F5
S1133850FFF744FF3B681A687B681A617B6808338A
S11338601846FFF75FFF00BF0837BD4680BD80B52F
S113387082B000AF786039607B6808331846FFF780
S11338802DFF7B681A693B681A607B681846FFF74E
S113389049FF00BF0837BD4680BD000080B483B037
S11338A000AF01237B6024E016497A6813465B006D
S11338B01344DB000B4404331B681A46124B1B6889
S11338C09A4213D80F497A6813465B001344DB000D
S11338D00B440C331B68002B08D17A6813465B0039
S11338E01344DB001A46074B134406E07B6801339C
S11338F07B607B68042BD7DD024B18460C37BD4632
S113390080BC7047DC020020D80200200028B8BF29
S11339104042704708B5074B044613B10021AFF38A
S11339200080054B1868836A03B19847204600F06D
S113393039F800BF000000006841000070B50025A0
S11339400C4E0D4CA41BA410A54209D100F02CF878
S113395000250A4E0A4CA41BA410A54205D170BD33
S113396056F8253098470135EEE756F82530984744
S11339700135F2E7B0000020B0000020B0000020C4
S1133980B400002003460244934200D1704703F878
S1133990011BF9E7034613F8012B002AFBD1181A7F
S11339A001387047FEE700BFF8B500BFF8BC08BC9B
S11339B09E467047F8B500BFF8BC08BC9E467047E9
S11339C000000000000000000101010100000000EF
S11339D0FF000000FF000000FF000000FF000000E7
S11339E0FF000000FF0000000000000009000000CC
S11339F00A0000000B0000000C00000000000000A2
S1133A0007000000070700003D0000000000000060
S1133A1000000000000000010000000000000000A1
S1133A200000000000000000000000000000000092
S1133A30000004000202000000000000000000007A
S1133A40000000000001000000000100010203006A
S1133A500000000000000000000000000000000062
S1133A600000000000000000000000000000000052
S1133A700000000000000000000000000000000042
S1133A800000000000000000000000000000000032
S1133A900000000000000000000000000000000022
S1133AA00000000000000000000000000000000012
S1133AB00000000000000000000000000000000002
S1133AC000000000000000000000000000000000F2
S1133AD000000000000000000000000000000000E2
S1133AE000000000000000000000000000000000D2
S1133AF000000000000000000000000000000000C2
S1133B0000000000000000000000000000000000B1
S1133B1000000000000000000000000000000000A1
S1133B200000000000000000000000000000000091
S1133B300000000000000000000000000000000081
S1133B400000000000000000000000000000000071
S1133B50010101000000000000000000010000005D
S1133B60010000003700000000200E0000000000EB
S1133B70010101000000000000000000010000003D
S1133B80010000003700000000200E0000000000CB
S1133B90010101000000000000000000010000001D
S1133BA0010000003700000000200E0000000000AB
S1133BB001010100000000000000000001000000FD
S1133BC0010000003700000000200E00000000008B
S1133BD000000000000000000000000000000000E1
S1133BE000000000000000000000000000000000D1
S1133BF000000000000000000000000000000000C1
S1133C0000000000000000000000000000000000B0
S1133C1000000000000000000000000000000000A0
S1133C200000000000000000000000000000000090
S1133C300000000000000000000000000000000080
S1133C400000000000000000000000000000000070
S1133C500000000000000000000000000000000060
S1133C600000000000000000000000000000000050
S1133C700000000000000000000000000000000040
S1133C800000000000000000000000000000000030
S1133C900000000000000000000000000000000020
S1133CA00000000000000000000000000000000010
S1133CB00000000000000000000000000000000000
S1133CC000000000000000000000000000000000F0
S1133CD000000000000000000000000000000000E0
S1133CE000000000000000000000000000000000D0
S1133CF000000000000000000000000000000000C0
S1133D0000000000000000000000000000000000AF
S1133D10000000000000000000000000000000009F
S1133D20000000000000000000000000000000008F
S1133D30000000000000000000000000000000007F
S1133D40000000000000000000000000000000006F
S1133D50010100000000000000000000010000005C
S1133D600F000000370000000020000000000000E9
S1133D70010100000000000000000000010000003C
S1133D800F000000370000000020000000000000C9
S1133D90010100000000000000000000010000001C
S1133DA00F000000370000000020000000000000A9
S1133DB001010000000000000000000001000000FC
S1133DC00F00000037000000002000000000000089
S1133DD000000000000000000000000000000000DF
S1133DE000000000000000000000000000000000CF
S1133DF000000000000000000000000000000000BF
S1133E0000000000000000000000000000000000AE
S1133E10000000000000000000000000000000009E
S1133E20000000000000000000000000000000008E
S1133E30000000000000000000000000000000007E
S1133E40000000000000000000000000000000006E
S1133E5001010507070304020302040605060D0E0B
S1133E600E0E0D0D0D0D0E0E0E0E0D0D010105079E
S1133E70070304020302040605060F1010100F0FB7
S1133E800F0F101010100F0F010105070703040294
S1133E900302040605061112121211111111121255
S1133EA0121211110101050707030402030204069B
S1133EB00506131C1C1C131313131C1C1C1C1313AA
S1133EC000010507060203010302040604051D1E82
S1133ED01E1E1D1D1D1D1E1E1E1E1D1D000105076F
S1133EE0060203010302040604051F2020201F1FED
S1133EF01F1F202020201F1F0101050707030402A4
S1133F000302040605062122222221212121222244
S1133F10222221210705020103060423232323234C
S1133F20232307050201030604242424242424242F
S1133F300705020103060425252525252525070552
S1133F400201030604262626262626260001070249
S1133F50062727272727000000000000000013126F
S1133F6011100F0E0D0C0000000021252426010164
S1133F700304040203020D0E0D0D0E0D0E0E0101BD
S1133F800304040203020F100F0F100F101001019D
S1133F90030404020302111211111211121201017D
S1133FA0030404020302131C13131C131C1C00013E
S1133FB00203040103021D1E1D1D1E1D1E1E000101
S1133FC00203040103021F201F1F201F20200101E0
S1133FD003040402030221222121222122220507B3
S1133FE00704040605060E0E0D0D0E0E0D0D050735
S1133FF007040406050610100F0F10100F0F050715
S113400007040406050612121111121211110507F4
S11340100704040605061C1C13131C1C13130507B4
S11340200603040604051E1E1D1D1E1E1D1D050778
S113403006030406040520201F1F20201F1F050758
S11340400704040605062222212122222121000040
S113405000000011800200000000020600002000A1
S113406039000F0000004015002040040010002219
S11340703F0006005B044F0466046D047D040700E2
S11340807F046F0400000000000A0000802000008C
S1134090FFFF7704790A3900B020790071007D04AC
S11340A0760406000E00700A3800B602B6083F0017
S11340B073043F08730C6D0401113E00302236284E
S11340C0802A6E040922390080080F0001000800CC
S11340D0000158107C0458005E04582071040C0C34
S11340E0740404000E00700C3800541454045C046E
S11340F0730467045004080C78001C001020142872
S1134100802A0C08482000003F0006005B004F0096
S113411066006D007D0007007F006F0077007C0063
S113412039005E00790071004000000001000000C9
S1134130030040000C00000000000000000000002C
S11341404E4F544F554348004C4546540000000020
S113415043454E544552000052494748540000001C
S113416048656C6C6F0000005000002000000000E7
S10B4170ACBFFF7F0100000059
S1134178006CDC0200800000809FD5000100000074
S1134188010000000100000001000000010000001F
S1134198010000000100000001000000010000000F
S11341A801000000010000000100000001000000FF
S11341B801000000010000000100000001327D0040
S11341C800000000000000000000000000000000E3
S11341D800000000000000000000000000000000D3
S11341E800000000000000000000000000000000C3
S11341F800000000000000000000000000000000B3
S113420800000000000000000000000000000000A2
S11342180000000000000000000000000000000092
S10B422801010000DD000000AB
S90301916A
